:020000021000EC
:10F800000C944AFC0C946AFC0C946AFC0C946AFC00
:10F810000C946AFC0C946AFC0C946AFC0C946AFCD0
:10F820000C946AFC0C946AFC0C946AFC0C946AFCC0
:10F830000C946AFC0C946AFC0C946AFC0C946AFCB0
:10F840000C946AFC0C946AFC0C946AFC0C946AFCA0
:10F850000C946AFC0C946AFC0C946AFC0C946AFC90
:10F860000C946AFC0C946AFC0C946AFC0C946AFC80
:10F870000C946AFC0C946AFC0C946AFC0C946AFC70
:10F880000C946AFC0C946AFC0C946AFC0C946AFC60
:10F890000C946AFC11241FBECFEFD0E1DEBFCDBFB8
:10F8A00011E0A0E0B1E0EAEDFEEF01E00BBF02C025
:10F8B00007900D92A230B107D9F71BBE12E0A2E06B
:10F8C000B1E001C01D92AD30B107E1F70E946CFDBF
:10F8D0000C946BFF0C9400FC982F809102018130F6
:10F8E00039F48091C00085FFFCCF9093C600089545
:10F8F000823031F48091C80085FFFCCF9093CE0018
:10F9000008951F93982F82958F708A3018F0282FB2
:10F91000295A02C0282F205D892F8F708A3018F055
:10F92000182F195A02C0182F105D822F0E946CFCEC
:10F93000812F0E946CFC1F910895EF92FF920F930C
:10F940001F93809102018130F1F4EE24FF2487019E
:10F9500013C00894E11CF11C011D111D81E4E8167F
:10F9600082E4F8068FE0080780E0180728F0E091AD
:10F970000401F091050109958091C00087FFE9CF4E
:10F980008091C60021C0823011F080E01DC0EE24BD
:10F99000FF24870113C00894E11CF11C011D111DF7
:10F9A00081E4E81682E4F8068FE0080780E0180793
:10F9B00028F0E0910401F091050109958091C800BB
:10F9C00087FFE9CF8091CE001F910F91FF90EF90BC
:10F9D00008951F930E949DFC182F0E946CFC113605
:10F9E00010F0175503C0103308F01053812F1F91EA
:10F9F00008951F930E94E9FC182F0E94E9FC1295BC
:10FA0000107F810F1F910895982F2091020112C03D
:10FA1000213039F48091C00087FFFCCF8091C6006F
:10FA200008C0223031F48091C80087FFFCCF80915C
:10FA3000CE009150992361F708951F93182F0E94CB
:10FA40009DFC803251F484E10E946CFC812F0E9465
:10FA50006CFC80E10E946CFC0CC0809103018F5F04
:10FA600080930301853029F4E0910401F0910501B0
:10FA700009951F9108950E949DFC803239F484E11C
:10FA80000E946CFC80E10E946CFC0895809103014F
:10FA90008F5F80930301853029F4E0910401F09198
:10FAA00005010995089540E951E013C0A09A28EE98
:10FAB00033E0FA013197F1F721503040D1F7A098A7
:10FAC00028EE33E0FA013197F1F721503040D1F7B9
:10FAD0008150882359F70895FF920F931F93CF9376
:10FAE000DF930000879886988F9A8E9A81E08093A2
:10FAF000020180E18093C4001092C5001092C00002
:10FB000086E08093C20088E18093C1006898709A73
:10FB1000989A82E00E9453FDFF24F3940E949DFC7A
:10FB2000803309F441C08133E1F40E949DFC8032AE
:10FB300009F0C3C184E10E946CFC81E40E946CFC6A
:10FB400086E50E946CFC82E50E946CFC80E20E94CB
:10FB50006CFC89E40E946CFC83E50E946CFC80E5EF
:10FB600024C1803439F40E949DFC8638E8F00E945C
:10FB70009DFC1AC0813499F40E949DFC803811F4D8
:10FB800082E098C1813811F481E094C1823811F487
:10FB900080E190C1883909F08CC183E08BC1823447
:10FBA00031F484E10E9404FD0E943BFDB7CF85340F
:10FBB00011F485E0F7CF8035B9F38235A9F38135AB
:10FBC00099F3853549F40E949DFC809306010E94BB
:10FBD0009DFC80930701E8CF8635C9F40E949DFC07
:10FBE000803389F40E949DFC0E949DFC182F0E9486
:10FBF0009DFC112311F48EE15DC1113011F487E9F0
:10FC000059C181E857C183E00E9404FD52C1843686
:10FC100009F0D1C00E949DFC809309020E949DFCC6
:10FC20008093080280910C028E7F80930C020E94C8
:10FC30009DFC853429F480910C02816080930C0234
:10FC400000E010E008C00E949DFCF801E85FFE4F54
:10FC500080830F5F1F4F809108029091090208175F
:10FC6000190788F30E949DFC803209F026C180911B
:10FC70000C0280FF2DC02091060130910701220F58
:10FC8000331F3093070120930601409108025091E1
:10FC9000090280E090E012C0BC01620F731FFC01FA
:10FCA000E85FFE4FE081F999FECF72BD61BDE0BD16
:10FCB0000FB6F894FA9AF99A0FBE01968417950731
:10FCC00058F3420F531F50930701409306016CC035
:10FCD000809107018823880F880B8F2180930B0266
:10FCE0008BBF8091060190910701880F991F909317
:10FCF0000701809306018091080280FF09C080916E
:10FD000008029091090201969093090280930802DB
:10FD1000F894F999FECF1127E0910601F0910701BF
:10FD2000C8E0D1E08091080290910902103091F46E
:10FD30000091570001700130D9F303E000935700A0
:10FD4000E8950091570001700130D9F301E100936B
:10FD50005700E89509901990009157000170013003
:10FD6000D9F301E000935700E8951395103898F007
:10FD700011270091570001700130D9F305E000937D
:10FD80005700E8950091570001700130D9F301E167
:10FD900000935700E8953296029709F0C7CF1030CC
:10FDA00011F00296E5CF112484E10E946CFC80E101
:10FDB0000E946CFCB3CE843709F068C00E949DFCA1
:10FDC000809309020E949DFC809308022091060105
:10FDD0003091070190910C0237FF02C0926001C080
:10FDE0009D7F90930C02220F331F309307012093C5
:10FDF00006010E949DFC90910C02853411F49160E3
:10FE000001C09E7F90930C020E949DFC803209F0FD
:10FE100085CE84E10E946CFC00E010E02EC0809151
:10FE20000C0280FF0BC08091060190910701F999A7
:10FE3000FECF92BD81BDF89A80B512C0E091060157
:10FE4000F091070181FD02C084910AC0CF01A0E0BA
:10FE5000B0E080509040AF4FBF4FABBFFC018791E7
:10FE60000E946CFC8091060190910701019690938D
:10FE70000701809306010F5F1F4F80910802909148
:10FE800009020817190708F4CACF91CF853779F40A
:10FE90000E949DFC803289F484E10E946CFC8EE11A
:10FEA0000E946CFC87E90E946CFC81E87ECF86375B
:10FEB00021F480E00E941DFD31CE809103018F5F0F
:10FEC00080930301853009F029CEE0910401F0917F
:0AFED0000501099523CEF894FFCF39
:02FEDA008000A6
:040000031000F800F1
:00000001FF
